:100000000C94AD000C9400000C9400000C940000C3
:100010000C9400000C9400000C9400000C94000060
:100020000C9400000C9400000C9400000C94000050
:100030000C9400000C9400000C9400000C94000040
:100040000C9400000C9400000C9400000C94000030
:100050000C9400001027E80364000A00010000105F
:1000600000011000010000000000000000004348F3
:100070004159202D205855204C593A2025642020E4
:100080000042414F205855204C59204C41493A20BC
:100090002564202000414E20544F414E2020202036
:1000A0002025303264256343004E47555920484986
:1000B000454D2020202530326425634300434F20E6
:1000C00043484159202020202025303264256343B5
:1000D0000048452054484F4E472050484F4E472037
:1000E0000043484159204348554120434841592045
:1000F0000050484F4E4720534F20303120202020C1
:10010000200050484F4E4720534F203032202020AF
:100110002020000080C001002D4E414E00494E4677
:10012000000008000600660010006001D100100009
:100130007001E10011008001F10011009101020144
:100140001100A201F1001100B30102010200EA0155
:1001500014010100F10116010000F894EE27ECBB38
:10016000F1E0FBBFEBBFE5BF8DE0A2E0BB27ED9365
:100170008A95E9F780E094E0A0E6ED930197E9F72E
:10018000E2E2F1E085919591009761F0A591B5913A
:1001900005901590BF01F00105900D920197E1F7D0
:1001A000FB01F0CFEFE5EDBFE4E0EEBFC0E6D1E04C
:1001B0000C94B402AA93E881E7B98BE18A95F1F730
:1001C000369A349BFECF349AE4B1F5B10C94B6055F
:1001D000A0E00E94B8052F01A1E00E94B805E093BD
:1001E000C601F093C7010895F3DFE6E4F0E0E415FB
:1001F000F50598F40A2C0B2859F4AB9A0C2C0D2811
:1002000039F4909AE1E0F0E0E093C401F093C50185
:10021000E1E0F0E04F013F0109C0E1E0F0E0EA1564
:10022000FB0521F4AA24BB24882499240E94CB0531
:10023000A734E0E0BE07F8F0E091CC01F091CD01E9
:10024000309771F4AA9AE091CE01F091CF013097E6
:1002500039F4909AE1E0F0E0E093D001F093D1011D
:10026000E1E0F0E0E093CA01F093CB01E093C80134
:10027000F093C9010BC00E94D005119739F40E9478
:10028000D505E0E0E093CA01E093CB010895E09149
:10029000D401F091D501309709F48CC0989934C0FD
:1002A000E0E0E093D401E093D501A091C401B091C6
:1002B000C501119721F49098E1E0F0E06F01E1E0D1
:1002C000F0E0EC15FD0521F400240614070409F004
:1002D00002C00E94DB05A091D001B091D10111971D
:1002E00039F49098E1E0F0E0E093CE01F093CF0193
:1002F000A091CE01B091CF01119719F40E94E305AE
:1003000009F002C00E94E905999953C0E0E0E0932A
:10031000D401E093D501E091D201F091D30130975F
:10032000D9F488249924662477245EDF0A2C0B28CC
:1003300041F4E1E0F0E05F01AB9890980E94DB05AA
:1003400002C0AA24BB24082C092831F4AA24BB2407
:10035000AB9890980E94DB050E94F305119749F530
:10036000E0E0E093CA01E093CB01E093C801E093A1
:10037000C9013ADFE091CC01F091CD01309759F4F9
:10038000E1E0F0E0E093CC01F093CD01AA989098E1
:100390000E94E90502C00E94D505E091CA01F091D2
:1003A000CB01309731F40E94D505AA9890980E940D
:1003B000E9050BC0989B02C0999901C006C0E1E015
:1003C000F0E0E093D401F093D50108950E94F80580
:1003D000EC81FD810E171F0708F520E030E0283280
:1003E000E0E03E0728F40E94FF052F5F3F4FF7CF64
:1003F000EFDEFADE00240614070421F40E94F30560
:10040000109741F00E94E30521F40E94F305119733
:1004100009F001C003C00F5F1F4FDACF23C00E9455
:10042000F805EC81FD810E171F07E0F420E030E0B5
:100430002233E0E03E0728F40E94FF052F5F3F4F84
:10044000F7CFC6DED1DEE1E0F0E0E615F70531F0EA
:10045000A091C801B091C901119709F403C00F5FC1
:100460001F4FDFCF0E94FB06269608951A930A932A
:1004700000240A140B0421F40E94F305109749F09C
:100480000E94D005109721F40E94F305119709F0FE
:100490000FC006E010E000240016010648F40E9498
:1004A0000506EEE6F0E00E940A0601501040F3CF88
:1004B000E1E0F0E0EA15FB0521F40E94F305109756
:1004C00049F00E94D005119721F40E94F30511977D
:1004D00009F00FC006E010E000240016010648F401
:1004E0000E940506E1E8F0E00E940A060150104073
:1004F000F3CF099119910895BA93AA93A881B9816C
:10050000D29738F40E940506E5E9F0E00E94220641
:1005100029C0A881B981A634E0E0BE0778F40E9422
:100520000506E9EAF0E00E942206909A0E943D0644
:100530000E943D060E943D06909814C0A881B98192
:10054000A634E0E0BE0770F00E940506EDEBF0E097
:100550000E9422060E943D060E943D060E943D0622
:100560000E943D060C944705E0E0EABBEBBBE7BB0D
:10057000E8BBECE0E4BBE3E0E5BBE1E0E1BBE0E0ED
:10058000E2BBE3BFE2BFECBFEFBDEEBDEDBDECBD36
:10059000E7BDE6BDEBBDEABDE9BDE8BDE2BDE5BD39
:1005A000E4BDE3BDE9BFE5BFE4BFEAB9E0E8E8B90F
:1005B000E0E0E7B9E3EAE6B9E0E0E0BFEDB9E6BFC5
:1005C000A0E10E9488050E9449050E944106A0E61C
:1005D000B1E00E947705E0E0EA93A1E00E943805CF
:1005E000A0E7B1E00E947705ACEDB5E00E948E0671
:1005F000EFDD00240614070419F40E94E30509F056
:1006000010C00E944106A0E8B1E00E9477050E9458
:1006100046060E944106A1E9B1E00E9477050E94CA
:100620004D06E1E0F0E0E615F70531F0A091C801D4
:10063000B091C901119741F5E0E0E093D201E09358
:10064000D3010E944106A2EAB1E00E947705082C7E
:10065000092811F00BDF02C00E944606E1E0F0E03D
:10066000E093D201F093D3010E944106A3EBB1E0E5
:100670000E947705E091CA01F091CB01309711F00B
:10068000F5DE02C00E944D06B3CFFFCFBA93AA9306
:10069000A991B991EE27FF276D91662311F031964C
:1006A000FBCF0895BA93AA93AA27BB27E991F991A2
:1006B0000590002011F01196FBCFFD010895BA932B
:1006C000AA931A930A93AA81BB8112960E94E50607
:1006D000309759F1AA81BB8114960E94E5068F01DB
:1006E000309761F00230E0E01E0798F0F801319792
:1006F0008F01AA81BB811496ED93FC93AA81BB81E3
:100700001296ED91FD913196FE93EE933197AC8167
:10071000A083AA81BB810E94E506FF232AF0ED9108
:10072000FD913196FE93EE9306C0AA81BB81EFEF57
:10073000FFEFED93FC931981088125960895BA93F4
:10074000AA9326970E94F20610E0AC85BD85E0E0F2
:10075000F0E0ED93FC93EA89FB893196EA8BFB8B01
:100760003197E4912E2FE03009F415C1E12FE030EC
:1007700039F4253211F411E002C00E9454060AC176
:10078000E130A9F4253219F40E94540602C112E0A6
:1007900040E000E02D3211F401E0FCC02B3211F4F6
:1007A0004BE2F8C0203211F440E2F4C002C0E23063
:1007B00039F450E013E0203311F40068EBC003C0BB
:1007C000E33009F0E7C0203310F02A3308F007C007
:1007D000AAE05A9F502DE22FE0535E0FDBC0E22FBC
:1007E000E33649F40E945B06E889F989A481AA935B
:1007F0000E946106CEC0E33741F40E945B060E946E
:1008000067060E9446031E2F0AC0E03761F40E946B
:100810005B060E9467060E9452031E2F086002605A
:100820000F7730E034C0E43611F0E93611F404609B
:1008300002C0E53731F4E4E5F0E0EE83FF8315E034
:100840000CC0E83511F4086003C0E83709F0A1C016
:10085000EEE5F0E0EE83FF8314E002FF14C00E9497
:100860005B060E947106AB85AA233AF4EA85FB85F4
:100870000E949C06EA87FB874DE2403011F01F5F23
:1008800001C00B7F04C00E945B060E94710600FD40
:1008900011C0151778F407FF08C002FF04C00B7FD2
:1008A000242F115001C020E301C020E20E94540611
:1008B0005150EFCF312F01FF17C03030A1F003FFAF
:1008C00006C0EE81FF812591EE83FF8305C0AE81D6
:1008D000BF812D91AE83BF830E945406503009F032
:1008E00051503150EACF4BC020E3EE81FF810E948E
:1008F000E906E887F987EE81FF813296EE83FF8370
:10090000E885F985AA85BB85AE17BF0750F02F5F34
:10091000A885B985EA85FB85EA1BFB0BEA87FB877F
:10092000EFCF2A3328F003FF02C0295F01C0295D01
:1009300004FD1AC0213320F4A885B985119709F464
:1009400009C0531710F000FF01C013C020E207FFD9
:100950000BC020E3006102FF07C00B7F4A930E9497
:100960006106503009F051500E945406503009F091
:1009700051503150A885B985129708F0B5CF00FFC6
:1009800008C0503031F05150E0E2EA930E94610615
:10099000F8CF10E0E0CEAC85BD850E94E5060E9450
:1009A000F90664960895FF92F82E26970E94F406A1
:1009B0000E947906309719F4EFEFFFEF23C0DE01B4
:1009C00016960E9498068D010E947906EE83FF8399
:1009D000E0E0E887E987DE011A960E9498060E9407
:1009E000E506FA93EA931A930A93EFE5F3E0FA9394
:1009F000EA93DE011A96A3DE9F01AE81BF81E0E09B
:100A0000EC93F9010E94FB062A96FF900895AA93A1
:100A1000E881E07111F0949A01C09498E881E07245
:100A200011F0939A01C09398E881E07411F0929AC2
:100A300001C09298E881E07811F0919A01C09198F4
:100A40008DE08A95F1F7959A8DE08A95F1F7959862
:100A50008DE08A95F1F78AC0AA93A881D8DFE88152
:100A6000E295E883A881D3DF85E88A95F1F77EC017
:100A7000AA93E881F0E0E651FE4FE081A981AE0F34
:100A8000EBDFE981E093EE01E881E093EF0122964C
:100A90000895A2E00E948006ACE0DEDFA1E00E94A3
:100AA0008006E0E0E093EF01E093EE010895AA9361
:100AB000A881AA3031F0E091F001A091EE01AE17CB
:100AC00060F0E0E0EA93A091EF01AF5FA093EF0147
:100AD000CFDFA881AA3009F449C0E091EE01EF5FB1
:100AE000E093EE01979AA881B7DF97983FC0BA9339
:100AF000AA931A93A981BA81ED91A983BA831E2F73
:100B0000E03019F0A12FD3DFF5CF18812396089597
:100B1000AA938C9A8B9A8A9A899A8D9A8F9A8E9A8E
:100B2000959897989698E881E093F001E058E093C3
:100B3000EC01E881E054E093ED01A4E1B0E00E9413
:100B40008E060E9486060E9486060E948606A0E205
:100B50005EDF88EC90E00197F1F7A8E27DDFA4E08A
:100B60007BDFA5E879DFA6E077DF93DF21960895A4
:100B70000E94DA0066277727A4EFB1E080E090E0DA
:100B80000E94A006DF01CB01EFEFF3E060E070E030
:100B90000E94C0060895A091C601B091C7010895B2
:100BA000A091CC01B091CD010895E0E0E093CC019B
:100BB000E093CD010895CC24DD24E0E0E093C4016E
:100BC000E093C5010895A091C801B091C9011097A3
:100BD0000895E0E0E093CE01E093CF01E093D001EF
:100BE000E093D1010895A091D201B091D30108956D
:100BF000BA93AA930E94F40600E010E00895AAE0D8
:100C0000B0E00E948E060C944701E6EDF1E0FA9305
:100C1000EA930895FA93EA93F801662777270E94EA
:100C2000ED0684E00E94D3042896E0E0EA93A1E078
:100C30000E943805A6EDB1E00E947705A2E0B0E081
:100C40000C94E601FA93EA93EC81FD8166277727FD
:100C50000E94ED06EFEDF0E060E070E00E94ED062E
:100C600088E00E94D3042C96E0E0EA93A1E00E9481
:100C70003805A6EDB1E00C947705A1E0B0E00C9446
:100C80000F02E0E0EA93A0E00C943805D2010E9444
:100C90007C02A6E0B0E00C940F027DDF0E947C0293
:100CA000A6E0B0E00C940F022A93AD85BE85EF85D7
:100CB000F88909950895E889F9893497E88BF98BC3
:100CC0000895AD85BE85EF85F88909950895A889B1
:100CD000B98914960E94E506EE83FF83AE81BF8139
:100CE0000895A889B98914960E94E506EA87FB87CA
:100CF0000895DE011C960E9498060E94E50608955C
:100D00000E942C05A3E0B0E00C948E06A0E30E94A4
:100D1000070588EC90E00197F1F70895109639F0F7
:100D200080ED97E00197F1F7A8951197C9F708951D
:100D30000024AF0DB01D0895F195E195F0400895A0
:100D40007A9F702D6B9F700DF89F700DE99F700D4D
:100D50006A9F602D710DFB9F600D711DE89F600DF6
:100D6000711D8827FA9FF02D610D781FEB9FF00D04
:100D7000611D781FEA9FE02DF10D681F781F08950F
:100D80003F934F935F93002411244427552730E26B
:100D9000AA0FBB1F881F991F001C111C441F551F41
:100DA0000E1A1F0A460B570B28F40E0E1F1E461F65
:100DB000571F01C0A1603A9559F7FD01BC01D00150
:100DC000CA015F914F913F910895ED91FC91119768
:100DD00008950590F491E02D08957A936A93FA931B
:100DE000EA9308955A934A933A932A931A930A934B
:100DF00008955D814C813B812A8119810881089584
:00000001FF
